:100000000C94FD000C9425010C9425010C94250101
:100010000C9425010C9425010C9425010C942501C8
:100020000C9425010C9425010C9425010C942501B8
:100030000C9425010C9425010C9425010C942501A8
:100040000C94A7020C9425010C9417030C94F10254
:100050000C9425010C9425010C9425010C94250188
:100060000C9425010C9425016364696E6F7073759F
:1000700078585B0050350A232073616D706C6520E1
:1000800050474D4220696D6167650A2320676667A6
:100090005F6C6F676F2E70676D0A31302032300AE7
:1000A0003235350A3135302032333620383020337E
:1000B0003020333020333020323020323020313085
:1000C000203235350A313530203233362038302071
:1000D0003330203330203330203230203230203162
:1000E00030203235350A3135302032333620383041
:1000F0002033302033302033302032302032302053
:100100003130203235350A3135302032333620381F
:100110003020333020333020333020323020323022
:10012000203130203235350A313530203233362017
:1001300038302033302033302033302032302032FA
:1001400030203130203235350A31353020323336E7
:1001500020383020333020333020333020323020EC
:100160003230203130203235350A313530203233CB
:1001700036203830203330203330203330203230B6
:10018000203230203130203235350A3135302032BE
:100190003336203830203330203330203330203293
:1001A00030203230203130203235350A31353020A0
:1001B0003233362038302033302033302033302073
:1001C0003230203230203130203235350A3135306E
:1001D0002032333620383020333020333020333053
:1001E000203230203230203130203235350A0020A4
:1001F0000020002000200000860611241FBECFEF43
:10020000D8E0DEBFCDBF11E0A0E0B1E0E2ECF9E163
:1002100002C005900D92A836B107D9F727E0A8E6ED
:10022000B1E001C01D92AA33B207E1F710E0CDEFB3
:10023000D0E004C02197FE010E943909CC3FD107CC
:10024000C9F70E9449030C94DF0C0C940000CF9274
:10025000DF92EF92FF920F931F93CF93DF936C0186
:100260007A018B01C0E0D0E0CE15DF0581F0D80126
:100270006D918D01D601ED91FC910190F081E02D01
:10028000C6010995892B11F02196EECF7E01C70199
:10029000DF91CF911F910F91FF90EF90DF90CF9062
:1002A0000895089580E090E00895FC01538D448DF9
:1002B000252F30E0842F90E0821B930B541710F011
:1002C000CF96089501970895FC01918D828D98171E
:1002D00061F0828DDF01A80FB11D5D968C91928D2A
:1002E0009F5F9F73928F90E008958FEF9FEF089527
:1002F000FC01918D828D981731F0828DE80FF11DF0
:10030000858D90E008958FEF9FEF0895FC01918D0A
:10031000228D892F90E0805C9F4F821B91098F7303
:100320009927089587E996E00E94860121E0892BAC
:1003300009F420E0822F0895FC01848DDF01A80FCD
:10034000B11DA35ABF4F2C91848D90E001968F73FD
:100350009927848FA689B7892C93A089B1898C911C
:10036000837080648C93938D848D981306C002886B
:10037000F389E02D80818F7D80830895EF92FF9235
:100380000F931F93CF93DF93EC0181E0888F9B8DB8
:100390008C8D981305C0E889F989808185FD26C078
:1003A000F62E0B8D10E00F5F1F4F0F731127E02EFD
:1003B0008C8DE8120CC00FB607FCFACFE889F989DA
:1003C000808185FFF5CFCE010E949C01F1CF8B8DFE
:1003D000FE01E80FF11DE35AFF4FF0829FB7F8943A
:1003E0000B8FEA89FB89808180620AC09FB7F894ED
:1003F000EE89FF896083E889F98980818370806450
:1004000080839FBF81E090E0DF91CF911F910F919A
:10041000FF90EF9008950F931F93CF93DF938C017C
:10042000C0E0D0E0F801EC0FFD1F6491662341F0BD
:1004300087E996E00E94BE01892B11F02196F2CF48
:10044000CE01DF91CF911F910F910895CF93DF934C
:10045000EC01888D8823C9F0EA89FB89808185FDBC
:1004600005C0A889B9898C9186FD0FC00FB607FC1D
:10047000F5CF808185FFF2CFA889B9898C9185FF5E
:10048000EDCFCE010E949C01E7CFDF91CF9108957F
:1004900080E090E0892B29F00E94920181110C9458
:1004A00000000895009769F0FC0101900020E9F731
:1004B0003197AF01481B590BBC0187E996E00C94BA
:1004C000270180E090E008958F929F92AF92BF92B3
:1004D0000F931F93CF93DF93CDB7DEB7A1970FB6DE
:1004E000F894DEBF0FBECDBF19A2423008F44AE037
:1004F0008E010F5D1F4F842E912CA12CB12CA501D4
:1005000094010E941709E62FB901CA01015011098F
:10051000EA3014F4E05D01C0E95CD801EC93232BD0
:10052000242B252B61F7C8010E945202A1960FB619
:10053000F894DEBF0FBECDBFDF91CF911F910F9119
:10054000BF90AF909F908F9008950E943F091F9297
:100550000F920FB60F9211242F933F938F939F9377
:10056000AF93BF938091930690919406A0919506C6
:10057000B09196063091920623E0230F2D3720F498
:100580000196A11DB11D05C026E8230F0296A11DED
:10059000B11D209392068093930690939406A093A6
:1005A0009506B093960680918E0690918F06A09145
:1005B0009006B09191060196A11DB11D80938E0603
:1005C00090938F06A0939006B0939106BF91AF9140
:1005D0009F918F913F912F910F900FBE0F901F9081
:1005E00018951F920F920FB60F9211242F933F93DD
:1005F0004F935F936F937F938F939F93AF93BF932B
:10060000EF93FF9387E996E00E949C01FF91EF91A1
:10061000BF91AF919F918F917F916F915F914F911A
:100620003F912F910F900FBE0F901F9018951F9222
:100630000F920FB60F9211242F938F939F93EF93E6
:10064000FF93E091A706F091A8068081E091AD06A6
:10065000F091AE0682FD12C090818091B0068F5F4E
:100660008F732091B106821751F0E091B006F0E04F
:10067000E956F94F958F8093B00601C08081FF91B4
:10068000EF919F918F912F910F900FBE0F901F9020
:100690001895CF93DF93CDB7DEB7AA970FB6F8942E
:1006A000DEBF0FBECDBF789484B5826084BD84B5B3
:1006B000816084BD85B5826085BD85B5816085BD5D
:1006C00080916E00816080936E0010928100809115
:1006D000810082608093810080918100816080939D
:1006E0008100809180008160809380008091B100C2
:1006F00084608093B1008091B00081608093B000ED
:1007000080917A00846080937A0080917A00826080
:1007100080937A0080917A00816080937A00809142
:100720007A00806880937A001092C100E091A70659
:10073000F091A80682E08083E091A306F091A406E0
:100740001082E091A506F091A60680E180831092C8
:10075000AF06E091AB06F091AC0686E08083E091B5
:10076000A906F091AA06808180618083E091A906A4
:10077000F091AA06808188608083E091A906F091BB
:10078000AA06808180688083E091A906F091AA067C
:1007900080818F7D8083E4E7F0E0E491E03509F02B
:1007A000ACC2E5E7F0E0E491E53309F0A6C21092AF
:1007B000190410921A0443E050E060E070E088E60B
:1007C000C82E81E0D82E9AE1E92E94E0F92E24E299
:1007D000222E21E0322EB0901904BB2021F0A090EF
:1007E0001A04A11052C0DB01CA01FC01EC58FF4FF2
:1007F000E4914C015D012FEF821A920AA20AB20A1B
:10080000EA3071F4A8E6B1E0412C512C320180E0CD
:1008100090E095018401041B150B260B370B03C0D8
:10082000D501C401E2CF401651066206730670F48A
:10083000FC01E40FF51FEC58FF4FE491ED93019696
:10084000EFEF4E1A5E0A6E0A7E0AEDCF80916801C4
:10085000833219F4B501A401BECFFF92EF9229E1D2
:1008600034E03F932F933F922F92DF92CF920E94DA
:1008700074090FB6F894DEBF0FBECDBFEBCF8091E9
:1008800068018332A1F5B701A601DB01CA01FC01B1
:10089000EC58FF4FE4916C017D01FFEFCF1ADF0AA6
:1008A000EF0AFF0AEA3071F4A8E6B1E000E010E0D8
:1008B000980180E090E026013701441A550A660A43
:1008C000770A03C0D701C601E2CF04151505260536
:1008D0003705A8F6FC01E40FF51FEC58FF4FE49133
:1008E000ED9301960F5F1F4F2F4F3F4FEECF88E6DE
:1008F00091E00E94B306009709F4C5CF29E12B15BA
:1009000008F4F6C02A1508F4F3C08F3F910509F0EA
:10091000EFC02B2D30E048EA51E060E070E02A2C77
:10092000312C62157305C4F480E090E082179307C0
:1009300064F4FC01EC0DFD1DEC58FF4FE491DA016D
:10094000A80FB91FEC930196F1CF6F5F7F4FC20ED6
:10095000D31E475E5F4FE5CF82E1E0E0F1E0DE01CC
:10096000119601900D928A95E1F789E190E09C8FB4
:100970008B8FE1E0F0E0F88FEF8B612C712CF0E8C9
:10098000FB8B2FEF2D8B1D8E1E8E30E83F8F8FE758
:1009900088A3F1013197FEA3EDA38B2D90E09C017C
:1009A000215031093AA729A78DA19EA1EF89F88D81
:1009B000E817F9070CF089C088248394912C29A5A5
:1009C0003AA5821693060CF074C0CE0101969A8F58
:1009D000898F412C512CC12CD12C00E010E08B8D43
:1009E0009C8D880D991DFC017997F8A7EFA3298D9F
:1009F0003A8D3AA329A3EE24EA94FE2C8FA198A560
:100A0000840D951D9CA38BA3E9A1FAA181919191DD
:100A1000FAA3E9A3EBA1FCA1EE0DFF1DE855FE4FE3
:100A20002081289FB001299F700D1124072E000CF2
:100A3000880B990B0E94F5079B01AC01B601C80118
:100A40000E94DA066B018C01FFEFEF1AFF0A22E029
:100A5000E216F104C9F6898D9A8D06969A8F898FD0
:100A600099E1490E511CEBE44E16510409F0BFCF39
:100A70002D8D3E8D4F8D58A1B601C8010E944607AD
:100A800087FF04C0CD8EDE8E0F8F18A393014B8994
:100A90005D89B601C8010E94A50818161CF0630103
:100AA0000B891D89FFEF8F1A9F0A36010B8B1D8B57
:100AB00086CF2F89388D2F5F3F4F388F2F8B8B8DAF
:100AC0009C8D49969C8F8B8F6FCF2D8D3E8D4F8D3A
:100AD00058A1B3018B899D890E94D9062B013C0145
:100AE0000E94BD07672B41F48AE291E00E9444090D
:100AF00081E090E00E94DF0CB0928D06A0928C06FF
:100B00004BE154E020E030E06B2D70E080E090E0BD
:100B10008617970734F4FA01E80FF91F108201963F
:100B2000F7CF2F5F3F4F475E5F4F2215330574F3BA
:100B3000E9E1F0E0FE8BED8B21E030E03C8B2B8B8C
:100B4000CB0101979CA38BA3EDA1FEA12B893C892E
:100B50002E173F070CF080C001E010E08BA19CA194
:100B6000081719070CF06CC0FE0131961F01E12C2B
:100B7000F12C812C912C54012D893E89200F311F9D
:100B80003A8F298F295131093AA329A3388E2F8A08
:100B9000CC24CA94DC2C89A19AA18E0D9F1D9C8F18
:100BA0008B8FEF89F88D81919191F88FEF8BEB8D81
:100BB000FC8DEC0DFD1DE855FE4F2081289FB001F6
:100BC000299F700D1124072E000C880B990B0E9491
:100BD000F5079B01AC01C501B4010E94DA064B0187
:100BE0005C01FFEFCF1ADF0A22E0C216D104C9F67A
:100BF00036E0230E311C89E1E80EF11C9BE4E91676
:100C0000F10421F62D8D3E8D4F8D58A1C501B40103
:100C10000E94D90620E030E04FE753E40E94AA0882
:100C2000E98DFA8DE55EFB4F7F01A30192010E94E1
:100C30004B070E94C407F70160830F5F1F4F8ECFE1
:100C40002B893C892F5F3F4F3C8B2B8B8D899E8955
:100C500049969E8B8D8B78CF8DE391E00E94520256
:100C600085EF91E00E940B0260918D0670E080E0BC
:100C700090E04AE00E94640283EF91E00E940B0240
:100C800060918C0670E080E090E04AE00E9464028F
:100C900081EF91E00E940B024AE06FEF70E080E08C
:100CA00090E00E94640210E039E1D32E80918C061E
:100CB000181710F500E0D19EC0011124FC01E55E7B
:100CC000FB4F7F0180918D060817A0F487E996E01D
:100CD0000E9426028FEE91E00E940B02F701E00FC6
:100CE000F11D608170E080E090E04AE00E946402C3
:100CF0000F5FE8CF1F5FDACFFFCF80E491E00E9463
:100D0000520284E691E00E945202F2CEE7E9F6E058
:100D10001382128288EE93E0A0E0B0E08483958392
:100D2000A683B78386E191E09183808385EC90E090
:100D30009587848784EC90E09787868780EC90E0A5
:100D4000918B808B81EC90E0938B828B82EC90E096
:100D5000958B848B86EC90E0978B868B118E128E10
:100D6000138E148E0895FC0188279927E894219109
:100D70002032E9F3293010F02E30C8F32B3241F045
:100D80002D3239F4689404C00E94D106820F911D5F
:100D9000219120532A30C0F31EF4909581959F4FE6
:100DA00008957AE0979F902D879F802D910D1124B3
:100DB00008955058BB27AA270E94F1060C946B088F
:100DC0000E945D0838F00E94640820F039F49F3FCB
:100DD00019F426F40C945A080EF4E095E7FB0C94F1
:100DE0005408E92F0E947C0858F3BA17620773076A
:100DF0008407950720F079F4A6F50C949E080EF46C
:100E0000E0950B2EBA2FA02D0B01B90190010C011A
:100E1000CA01A0011124FF27591B99F0593F50F432
:100E2000503E68F11A16F040A22F232F342F44278A
:100E3000585FF3CF469537952795A795F040539582
:100E4000C9F77EF41F16BA0B620B730B840BBAF052
:100E50009150A1F0FF0FBB1F661F771F881FC2F7BD
:100E60000EC0BA0F621F731F841F48F487957795D1
:100E70006795B795F7959E3F08F0B0CF9395880F8B
:100E800008F09927EE0F9795879508950E943008EE
:100E900008F481E008950E945F070C946B080E949B
:100EA000640858F00E945D0840F029F45F3F29F083
:100EB0000C94540851110C949F080C945A080E94E9
:100EC0007C0868F39923B1F3552391F3951B550BD7
:100ED000BB27AA2762177307840738F09F5F5F4F0D
:100EE000220F331F441FAA1FA9F335D00E2E3AF04C
:100EF000E0E832D091505040E695001CCAF72BD064
:100F0000FE2F29D0660F771F881FBB1F26173707B4
:100F10004807AB07B0E809F0BB0B802DBF01FF27E6
:100F200093585F4F3AF09E3F510578F00C94540867
:100F30000C949F085F3FE4F3983ED4F38695779531
:100F40006795B795F7959F5FC9F7880F911D96959F
:100F5000879597F90895E1E0660F771F881FBB1FFB
:100F6000621773078407BA0720F0621B730B840BA8
:100F7000BA0BEE1F88F7E09508950E94C4076894A5
:100F8000B1110C949F0808950E94840888F09F571F
:100F900098F0B92F9927B751B0F0E1F0660F771F9D
:100FA000881F991F1AF0BA95C9F714C0B13091F093
:100FB0000E949E08B1E008950C949E08672F782F38
:100FC0008827B85F39F0B93FCCF386957795679558
:100FD000B395D9F73EF490958095709561957F4FC4
:100FE0008F4F9F4F0895E89409C097FB3EF490956A
:100FF0008095709561957F4F8F4F9F4F9923A9F0F2
:10100000F92F96E9BB279395F69587957795679580
:10101000B795F111F8CFFAF4BB0F11F460FF1BC0C4
:101020006F5F7F4F8F4F9F4F16C0882311F096E957
:1010300011C0772321F09EE8872F762F05C0662305
:1010400071F096E8862F70E060E02AF09A95660FBE
:10105000771F881FDAF7880F9695879597F9089577
:10106000990F0008550FAA0BE0E8FEEF16161706B9
:10107000E807F907C0F012161306E407F50798F021
:10108000621B730B840B950B39F40A2661F0232B3A
:10109000242B252B21F408950A2609F4A140A695B6
:1010A0008FEF811D811D089597F99F6780E870E09B
:1010B00060E008959FEF80EC089500240A941616CE
:1010C000170618060906089500240A941216130636
:1010D000140605060895092E0394000C11F48823C4
:1010E00052F0BB0F40F4BF2B11F460FF04C06F5FE0
:1010F0007F4F8F4F9F4F089557FD9058440F551FB6
:1011000059F05F3F71F04795880F97FB991F61F089
:101110009F3F79F087950895121613061406551F00
:10112000F2CF4695F1DF08C0161617061806991F6C
:10113000F1CF86957105610508940895E894BB2761
:1011400066277727CB0197F908950E94300808F4A5
:101150008FEF08950E94BD080C946B080E945D08F3
:1011600038F00E94640820F0952311F00C94540884
:101170000C945A0811240C949F080E947C0870F368
:10118000959FC1F3950F50E0551F629FF001729F2C
:10119000BB27F00DB11D639FAA27F00DB11DAA1F3B
:1011A000649F6627B00DA11D661F829F2227B00D88
:1011B000A11D621F739FB00DA11D621F839FA00D13
:1011C000611D221F749F3327A00D611D231F849F63
:1011D000600D211D822F762F6A2F11249F575040BA
:1011E0009AF0F1F088234AF0EE0FFF1FBB1F661F35
:1011F000771F881F91505040A9F79E3F510580F0FE
:101200000C9454080C949F085F3FE4F3983ED4F389
:10121000869577956795B795F795E7959F5FC1F7A1
:10122000FE2B880F911D9695879597F90895A1E259
:101230001A2EAA1BBB1BFD010DC0AA1FBB1FEE1F50
:10124000FF1FA217B307E407F50720F0A21BB30B9B
:10125000E40BF50B661F771F881F991F1A9469F717
:1012600060957095809590959B01AC01BD01CF0173
:101270000895EE0FFF1F0590F491E02D099481E091
:1012800090E0F8940C94DF0C0F931F93CF93DF93AF
:10129000E0913607F0913707238121FF1BC08C01B5
:1012A000D0E0C0E0F80181918F0160913607709124
:1012B0003707DB011896ED91FC911997882331F0DF
:1012C0000995892B79F3DFEFCFEFECCF8AE0099511
:1012D000892B19F08FEF9FEF02C08D2F9C2FDF918C
:1012E000CF911F910F910895AEE0B0E0EAE7F9E0E9
:1012F0000C94B80C85E08C838B899C899A838983B4
:10130000AE01495E5F4F6D897E89CE0101960E94D4
:10131000290B2E96E2E00C94D40C20FD09C0FC01B0
:1013200023FD05C022FF02C0738362835183408383
:10133000089544FD17C046FD17C0AB01BC01DA019A
:10134000FB01AA0FBB1FEE1FFF1F1094D1F74A0F1E
:101350005B1F6E1F7F1FCB01BA01660F771F881FAF
:10136000991F09C033E001C034E0660F771F881F62
:10137000991F3150D1F7620F711D811D911D089584
:101380000F931F93CF93DF938C01C8010E944E0CE3
:10139000EC0197FD08C00E943A0C892BB1F7B80107
:1013A000CE010E948C0CCE01DF91CF911F910F9145
:1013B00008958F929F92AF92BF92EF92FF920F93F8
:1013C0001F93CF93DF938C01D62F7A01B22E0E9408
:1013D0004E0C9C0133272B32310531F02D32310573
:1013E00061F48B2D8068B82ED15011F480E068C074
:1013F000C8010E944E0C97FDF9CFCB2DCD7F2B2D30
:10140000207309F58033F9F4AA24AA94AD0E09F4E7
:1014100043C0C8010E944E0C97FD3EC09C012F7D29
:1014200033272835310549F4C264D250A9F1C801E7
:101430000E944E0C97FF07C02FC0B6FE02C0C260CC
:1014400001C0C261DA2D812C912C540120ED280FAE
:10145000283080F0C4FF04C0B8010E948C0C19C071
:101460002A3040F0C6FFF8CF2F7D3FEE320F3630E6
:1014700098F727504C2FC501B4010E9499094B01E0
:101480005C01C260D15059F0C8010E944E0C97FF18
:10149000DDCFC1FD04C0AACF812C912C5401C7FF20
:1014A00008C0B094A09490948094811C911CA11CBD
:1014B000B11C2C2FB501A401C7010E948D0981E048
:1014C000DF91CF911F910F91FF90EF90BF90AF9060
:1014D0009F908F900895A0E2B0E0E1E7FAE00C94CD
:1014E000AB0C5C01962E7A01F9018E010F5F1F4F44
:1014F000680180E2D8011D928A95E9F7D50113961B
:101500008C9080E090E0612C712C30E061E070E024
:1015100083FC259183FE21918F01522E211103C05E
:1015200080E090E092C02E3511F4009751F1432FE6
:1015300050E0481759073CF42D3559F12D3219F474
:10154000772009F103C0772009F46AC0452D46953C
:1015500046954695D601A40FB11D452D47708B01C8
:1015600002C0000F111F4A95E2F7A8015C91452BBC
:101570004C93651459F0561410F45394E7CF5A94D1
:10158000E5CF31E004C07724739401C0712C01963B
:10159000BFCF772019F08E8180628E83311103C016
:1015A0008824839417C0F6019E012F5D3F4F8081F0
:1015B000809581932E173F07D1F7F2CFE114F10404
:1015C00029F0D7018C93F70131967F019A94812CF1
:1015D0009920F9F0C5010E944E0C97FD18C0FC013E
:1015E000FF2723E0F595E7952A95E1F7EC0DFD1D22
:1015F000208130E0AC014770552702C03595279512
:101600004A95E2F720FDDACFB5010E948C0C8110DB
:1016100087CFE114F10411F0D7011C92C80115C065
:10162000422F469546954695D601A40FB11D422FEF
:1016300047708B0102C0000F111F4A95E2F7A80105
:101640005C91452B4C93622EA2CFA096EFE00C94B8
:10165000C70CA0E0B0E0EFE2FBE00C94AB0C6C0137
:10166000EB015A01FC0117821682512CF601E3802E
:10167000FE01E3FC8591E3FE8191182FEF018823A1
:1016800009F4EEC090E00E943A0C892B21F0C601CB
:101690000E94C009EBCF153241F4FE01E3FC159125
:1016A000E3FE1191EF01153281F4C6010E944E0C48
:1016B00097FDD4C0412F50E09C01332724173507F4
:1016C000A9F2B6010E948C0CCBC01A3239F4E3FCAB
:1016D0001591E3FE1191EF0101E001C000E0F12C52
:1016E00020ED210F2A3080F402606F2D70E080E041
:1016F00090E040E20E949909F62EFE01E3FC15916C
:10170000E3FE1191EF01ECCF01FF03C0F11003C024
:10171000A7C0FF24FA94183619F01C3651F010C0F7
:10172000FE01E3FC1591E3FE1191EF01183641F43F
:1017300008600460FE01E3FC1591E3FE1191EF01E6
:10174000112309F48DC0612F70E088E690E00E94BB
:10175000430C892B09F484C000FD07C0F50180808B
:101760009180C50102965C0102C0812C912C1E362D
:1017700051F4F6014681578160E070E0202FC401EA
:101780000E948D0973CF1336A9F401FD02C0FF2416
:10179000F394C6010E944E0C97FD60C08114910421
:1017A00029F0F4018083C40101964C01FA94F110F0
:1017B000F0CF50C01B3559F49E01A4016F2DC60116
:1017C0000E946B0AEC01892B09F044C03EC0C6019F
:1017D0000E94C00997FD42C01F3661F128F41436FB
:1017E00039F1193651F128C0133771F0153701F16D
:1017F00023C08114910429F0F4016082C401019690
:101800004C01FA94FF2071F0C6010E944E0C3C017D
:1018100097FD08C00E943A0C892B59F3B601C30109
:101820000E948C0C81149104A9F0F401108212C062
:10183000006203C0006101C00064202FA4016F2D6D
:10184000C6010E94D909811105C0F6018381807308
:1018500029F406C000FD0ACF539408CF552019F093
:10186000852D90E002C08FEF9FEFCDB7DEB7EFE0A0
:101870000C94C70C91110C94A50C803219F089506E
:101880008550C8F70895FC010590061621F0002048
:10189000D9F7C00108953197CF010895CF93DF9311
:1018A000EC012B8120FF33C026FF0AC02F7B2B8346
:1018B0008E819F8101969F838E838A8190E029C0CB
:1018C00022FF0FC0E881F9818081082E000C990B5E
:1018D000009719F420622B831AC03196F983E883AC
:1018E0000EC0EA85FB85099597FF09C02B810196FB
:1018F00011F080E201C080E1822B8B8308C02E8131
:101900003F812F5F3F4F3F832E83992702C08FEF88
:101910009FEFDF91CF910895FB01238120FF12C03B
:1019200026FD10C08F3F3FEF930761F082832F7D2C
:101930002064238326813781215031093783268310
:10194000992708958FEF9FEF089599278827089585
:101950002F923F924F925F926F927F928F929F92BF
:10196000AF92BF92CF92DF92EF92FF920F931F93AD
:10197000CF93DF93CDB7DEB7CA1BDB0B0FB6F8945E
:10198000DEBF0FBECDBF09942A88398848885F849E
:101990006E847D848C849B84AA84B984C884DF800F
:1019A000EE80FD800C811B81AA81B981CE0FD11DF3
:1019B0000FB6F894DEBF0FBECDBFED010895F894C9
:0219C000FFCF57
:1019C200FFFF00000100FEFF00000200FFFF000019
:1019D200010000000000BE01270155012602860118
:1019E200640178012564202564004E6F7468696E75
:1019F20067206578697374732121210A00503500CC
:101A020020202020204D697374616B656E20666909
:101A12006C6520666F726D61742C206E6F7420503D
:081A220035210A000D0A000045
:00000001FF
